:100000000C9487000C94A6000C94A6000C94A600F7
:100010000C94A6000C94A6000C94A6000C94A600C8
:100020000C94A6000C94A6000C94A6000C94A600B8
:100030000C94A6000C94A6000C94A6000C94A600A8
:100040000C94A6000C94A6000C94A6000C94A60098
:100050000C94A6000C94A6000C94A6000C94A60088
:100060000C94A6000C94A6000C94A6000C94A60078
:100070000C94A6000C94A6000C94A6000C94A60068
:100080000C94A6000C94A6000C94A60007634236BC
:10009000B79BD8A71A39685618AEBAAB558C1D3C19
:1000A000B7CC5763BD6DEDFD753EF6177231BF00DD
:1000B0000000803F08000000BE922449123EABAA17
:1000C000AA2ABECDCCCC4C3E00000080BEABAAAA72
:1000D000AA3E00000000BF000000803F00000000BA
:1000E00000084178D3BB4387D1133D190E3CC3BDF3
:1000F0004282AD2B3E68EC8276BED98FE1A93E4CA0
:1001000080EFFFBE01C4FF7F3F000000000011240C
:100110001FBECFEFD0E1DEBFCDBF12E0A0E0B1E067
:10012000E6E5FBE100E00BBF02C007900D92A035B1
:10013000B107D9F712E0A0E5B2E001C01D92A437E3
:10014000B107E1F70E94E0040C94A90D0C940000A3
:100150008FE18093000180E18093010123E02093EF
:1001600002018FEA9FE8A0E0B0E080930301909342
:100170000401A0930501B093060120939900109209
:10018000980029B91092900096E090939D0088E124
:1001900080939A00909395008AB9599AEBE9F0E020
:1001A0008081826080830895660F771F881F991F62
:1001B00020E097FF03C08EE1821B08952F5F2E3150
:1001C00029F0660F771F881F991FF3CF80E00895ED
:1001D0002627372748275927B901CA0108954F9282
:1001E0005F926F927F929F92AF92BF92CF92DF9277
:1001F000EF92FF920F931F93CF93DF932B013C015C
:10020000C901DA015C016D01EE24FF248701992404
:10021000CFE1D0E017C0CE0189199109A301920165
:1002200004C0220F331F441F551F8A95D2F757FF72
:1002300004C0EA24FB240C251D25AA0CBB1CCC1CE5
:10024000DD1C9394C301B2010E94D400891518F7F4
:10025000B701C801DF91CF911F910F91FF90EF90EF
:10026000DF90CF90BF90AF909F907F906F905F9006
:100270004F900895DC01CB012FE130E0241B3109C0
:1002800004C0880F991FAA1FBB1F2A95D2F7882781
:10029000B7FD83959927AA27BB270895EF92FF9270
:1002A0000F931F937B018C01FA0180E09FEFE0FC2C
:1002B00002C0908301C010828F5F3196803229F096
:1002C00016950795F794E794F2CF1F910F91FF9041
:1002D000EF90089520E030E04FEFFC01E20FF31FB4
:1002E00040832F5F3F4F20323105B9F70895E7E093
:1002F000F1E0DF01A60FB11DE80FF11D8C91908197
:100300008927E7E2F1E0E80FF11D808108958FE190
:1003100008950F931F93CF93DF93082FEB013FEFC7
:1003200040E010E2FE01E40FF11D2081409FC0017A
:100330001124820F911D6FE170E00E946A0AE82F7C
:10034000F0E0E95FFE4FA32FB0E0A95FBE4FE08170
:100350008C91E827F0E0E95DFE4F30814F5F11504E
:1003600009F7832FDF91CF911F910F910895EF929D
:10037000FF920F931F93CF93DF937C018B01BA0100
:1003800040E050E09B01240F351FF701E40FF51FFB
:10039000E081CE2FD0E0C95FDE4FF801E40FF51FFA
:1003A000A081B0E0A95FBE4FE8818C91E827F0E022
:1003B000E95DFE4F8081F90180834F5F5F4F4032DE
:1003C000510501F7DF91CF911F910F91FF90EF90B1
:1003D00008952F923F924F925F926F927F928F92E9
:1003E0009F92AF92BF92CF92DF92EF92FF920F93C4
:1003F0001F93DF93CF93CDB7DEB7A2970FB6F894D4
:10040000DEBF0FBECDBF1C0169A37AA32A0180E025
:1004100090E05FEF9E012F5F3F4FF201E80FF91F61
:100420005083F901E80FF91F50830196803291053E
:10043000A1F7E1E26E2E712C6C0E7D1E530100E0DF
:1004400010E04E010894811C911C3BC0D7012D91F6
:100450007D01D6018C9190E0820F911D6FE170E0DB
:100460000E946A0A8193EA15FB0581F7A401B20193
:100470009401DB01EC91F0E0E95FFE4FD9018D9131
:100480009D01A82FB0E0A95FBE4FE0818C91E827C5
:10049000F0E0E95DFE4F8081FB018193BF012615ED
:1004A000370539F7DA01EFEFED93AD01A615B70582
:1004B000C9F70F5F1F4F0894A11CB11C0032110532
:1004C00059F089A19AA19C017901F401E00FF11F73
:1004D0006101C00ED11EBACFA2960FB6F894DEBF4E
:1004E0000FBECDBFCF91DF911F910F91FF90EF9085
:1004F000DF90CF90BF90AF909F908F907F906F9044
:100500005F904F903F902F900895CF93DF93EB0132
:10051000BA0120E030E0482F50E0F901E40FF51F68
:10052000EF71F070E60FF71FDE01A20FB31F8C9181
:1005300080832F5F3F4F2032310579F7DF91CF91D4
:100540000895EF92FF920F931F93CF93DF937B0158
:100550008A0120E030E0C82FD0E0F801E20FF31F5D
:10056000D701A20FB31F8C91AE01480F511DCA01D4
:100570006FE170E00E946A0A80832F5F3F4F203254
:10058000310559F7DF91CF911F910F91FF90EF90B7
:1005900008951F93CF93DF93EC0110E0812FBE01EC
:1005A0000E9489011F5F1032C9F7DF91CF911F911F
:1005B00008952F923F924F925F926F927F928F9207
:1005C0009F92AF92BF92CF92DF92EF92FF920F93E2
:1005D0001F93DF93CF93CDB7DEB7C050D2400FB695
:1005E000F894DEBF0FBECDBFFE0131962FEFCE01D6
:1005F00081962193E817F907E1F7EE24A2E0CA2ECD
:10060000D12CCC0EDD1E0AC0E3948E2D60E572E085
:100610000E9489010C0D1D1DD8018C930E2D10E038
:100620008091020190E0880F991F0817190764F361
:10063000CE018F5B9F4FAC01405E5F4F20E030E00A
:100640008C01BE016F5D7E4FFF24FA940DC0F192C4
:10065000FD92E417F507D9F72F5F3F4FAF01405EDA
:100660005F4F2730310569F0C901E5E0880F991F18
:10067000EA95E1F7F801E80FF91FDB01A80FB91FB0
:10068000E6CF1982FE01EF5BFF4F1082DE01AF5D06
:10069000BE4F1C92552431E2A32EB12CAC0EBD1ED0
:1006A0001D0198C08601000F111F760196E0EE0C27
:1006B000FF1C9A95E1F781E4882E912C8C0E9D1EEB
:1006C0008E0C9F1CC401BE016F5F7F4FA5010E946D
:1006D000E901E2E2F0E0EC0FFD1F0E0F1F1FD80151
:1006E0004C90E20CF31CD70121E030E0F901EF71EE
:1006F000F070EA0DFB1D8D9180832F5F3F4F2132FB
:100700003105A1F7842DB501A5010E94A102A60122
:100710004F5F5F4FB6E0440F551FBA95E1F7A1E474
:100720006A2E712C6C0E7D1E640E751E6401840190
:1007300060E070E09301260F371FD801ED918D0125
:100740008E2F90E0895F9E4FF501E60FF71FA08185
:10075000B0E0A95FBE4FFC0190818C919827E92FF2
:10076000F0E0E95DFE4F8081D9018C936F5F7F4F90
:1007700060327105F9F6BEE1B515A0F08101040FF4
:10078000151F22E030E0F901EF71F070E00FF11F6A
:10079000D7018D917D0180832F5F3F4F223231053C
:1007A00091F717C021E030E0F901EF71F070EA0D28
:1007B000FB1DD6018D916D0180832F5F3F4F21324C
:1007C000310591F7420D531D8FE18419B5010E9447
:1007D000A102539480910201C52CDD24581608F41F
:1007E00061CFF6E0CC0CDD1CFA95E1F781E490E0F6
:1007F0008C0F9D1F8C0D9D1D0E94C902C050DE4FA5
:100800000FB6F894DEBF0FBECDBFCF91DF911F9121
:100810000F91FF90EF90DF90CF90BF90AF909F909F
:100820008F907F906F905F904F903F902F900895A2
:10083000EF92FF920F931F93DC01FC0190E020E008
:1008400030E040E050E0EE24FF248701878D8823CC
:1008500029F481E0E82EF12C012D112D2E293F29BC
:10086000402B512B220F331F441F551F9F5F319781
:100870009F3149F7EE24FF2487018C91882329F4C6
:10088000B1E0EB2EF12C012D112D2E293F29402B0B
:10089000512BB901CA011F910F91FF90EF9008955C
:1008A0000F931F93E0E5F2E08FEF819392E0E03742
:1008B000F907D9F76091700270917102809172020C
:1008C000909173028F0100521040A8010E944E01C6
:1008D0000E94D902C8010E9418049B01AC01220F9A
:1008E000331F441F551F80919B0085FFFCCF852F30
:1008F0009927AA27BB2780939C0080919B0085FFA6
:10090000FCCF40939C001F910F910895FA01660F50
:10091000771F881F991F292F3327442755272083A6
:1009200081830895982F80919B0085FFFCCF909341
:100930009C0008955F9BFECF8CB108955F9BFECF16
:100940008CB18F3FD9F781E090E008955F9BFECF97
:100950008CB18F3FD9F75F9BFECF8CB18038B1F758
:1009600081E090E008959B01AC0180919B0085FFA0
:10097000FCCF8FEF80939C0080919B0085FFFCCF84
:1009800080E880939C0080919B0085FFFCCF852FA1
:100990009927AA27BB2780939C0080919B0085FF05
:1009A000FCCF40939C0080919B0085FFFCCF30934F
:1009B0009C0080919B0085FFFCCF20939C000895B4
:1009C000CF92DF92EF92FF920F931F93DF93CF931B
:1009D000CDB7DEB764970FB6F894DEBF0FBECDBFBC
:1009E0008FEF8ABB81E08BBB0E94A80000E010E083
:1009F0006E010894C11CD11CB1E1EB2EF12CEC0E60
:100A0000FD1E0E94A604F6015F9BFECF8CB190E014
:100A1000A0E0B0E081939193A193B193EE15FF050F
:100A200099F769817A818B819C81962F8827772716
:100A300066272D813E814F815885A90133272227C2
:100A4000622B732B842B952B2D853E854F855889E2
:100A5000622B732B842B952B29853A854B855C85DE
:100A6000542F432F322F2227622B732B842B952B4D
:100A7000609370027093710280937202909373027C
:100A80000E94B3040F5F1F4F0230110508F4B9CF65
:100A900000E010E0B6CF8F929F92AF92BF92CF92BC
:100AA000DF92EF92FF920F931F93CF93DF93490151
:100AB0005A01E801188219821A821B82AC01CB010B
:100AC000DA016C017D01C701B6010E94D400182F24
:100AD000C501B4010E94D400212F30E0281B310948
:100AE00037FF11C0CC82DD82EE82FF82DF91CF9191
:100AF0001F910F91FF90EF90DF90CF90BF90AF903C
:100B00009F908F9008952115310529F421E030E060
:100B100040E050E01BC0B901882777FD8095982FF1
:100B20000E94C3079B01AC0160E070E080E090E4AC
:100B30000E94C80A9B01AC01CA01B9010E94BD050F
:100B40009B01AC012F5F3F4F4F4F5F4F88819981D1
:100B5000AA81BB8182279327A427B52788839983FD
:100B6000AA83BB83CA01B901A50194010E94EF00C9
:100B7000C626D726E826F926A6CFEF92FF920F9336
:100B80001F937B018C0120E030E040E05FE40E9495
:100B9000930788238CF0C801B70120E030E040E0E3
:100BA0005FE40E9435070E9421089B01AC012050A0
:100BB00030404040504806C0C801B7010E9421089B
:100BC0009B01AC01B901CA011F910F91FF90EF90F9
:100BD0000895A0E0B0E0EFEEF5E00C94910ADC019E
:100BE0002B01FA019C91923008F439C1EB01888104
:100BF000823008F433C1943069F4843009F02FC195
:100C000011969C9111978981981709F428C1A7E43E
:100C1000B1E025C1843009F421C18230A9F49230B9
:100C200009F01DC19A01AD0188E0EA010990AE0109
:100C3000E90109929E018150C1F7E2018981119673
:100C40009C918923818308C1923009F407C11296CF
:100C50002D903C901397EB018A819B811496AD9067
:100C6000BD90CD90DC901797EC80FD800E811F81A8
:100C70009101281B390BB90137FF04C0662777277C
:100C8000621B730B603271050CF061C01216130603
:100C90006CF537014801062E04C09694879477942A
:100CA00067940A94D2F721E030E040E050E004C0BD
:100CB000220F331F441F551F6A95D2F72150304031
:100CC000404050402E213F21402351232115310522
:100CD0004105510521F021E030E040E050E079018C
:100CE0008A01E628F728082919293CC0232BD1F1CD
:100CF000260E371E35014601062E04C096948794B1
:100D0000779467940A94D2F721E030E040E050E015
:100D100004C0220F331F441F551F6A95D2F721507C
:100D20003040404050402A213B214C215D2121157B
:100D300031054105510521F021E030E040E050E06F
:100D400059016A01A628B728C828D9280BC08215DE
:100D500093052CF01C01AA24BB24650103C0EE24DA
:100D6000FF24870111969C91D20111968C919817BE
:100D700009F445C0992339F0A80197012A193B09C4
:100D80004C095D0906C0A60195012E193F09400BCB
:100D9000510B57FD08C01182338222822483358390
:100DA000468357831DC081E0818333822282882756
:100DB0009927DC01821B930BA40BB50B84839583CD
:100DC000A683B7830DC0220F331F441F551F2483F2
:100DD00035834683578382819381019793838283EE
:100DE0002481358146815781DA01C9010197A10922
:100DF000B1098F5F9F4FAF4FBF4328F30BC0918363
:100E000033822282EA0CFB1C0C1D1D1DE482F5823C
:100E10000683178383E0808324813581468157814F
:100E200057FF1AC0C901AA2797FDA095BA2F817054
:100E30009070A070B0705695479537952795822B86
:100E4000932BA42BB52B84839583A683B7838281B0
:100E50009381019693838283DF0101C0D201CD018A
:100E6000CDB7DEB7E2E10C94AD0AA0E2B0E0EBE36F
:100E7000F7E00C949D0A69837A838B839C832D838E
:100E80003E834F835887E9E0EE2EF12CEC0EFD1ED9
:100E9000CE010196B7010E9499098E010F5E1F4F86
:100EA000CE010596B8010E9499098A8991E08927A7
:100EB0008A8BC701B801AE01475E5F4F0E94E9050A
:100EC0000E94C408A096E6E00C94B90AA0E2B0E043
:100ED000ECE6F7E00C949D0A69837A838B839C830C
:100EE0002D833E834F835887F9E0EF2EF12CEC0ED3
:100EF000FD1ECE010196B7010E9499098E010F5E79
:100F00001F4FCE010596B8010E949909C701B8018B
:100F1000AE01475E5F4F0E94E9050E94C408A0969B
:100F2000E6E00C94B90AA8E1B0E0E9E9F7E00C9436
:100F30009D0A69837A838B839C832D833E834F83B1
:100F4000588789E0E82EF12CEC0EFD1ECE010196AB
:100F5000B7010E9499098E010F5E1F4FCE010596C1
:100F6000B8010E9499098985823040F089898230D0
:100F700028F0C701B8010E94110A01C08FEF6896DE
:100F8000E6E00C94B90AA8E0B0E0E9ECF7E00C94D4
:100F90009A0A9B01AC0183E08983DA01C9018827A1
:100FA000B7FD83959927AA27BB27B82E21153105B0
:100FB0004105510519F482E089833AC08823A9F0DC
:100FC000203080E0380780E0480780E8580729F49F
:100FD00060E070E080E09FEC30C0EE24FF248701E9
:100FE000E21AF30A040B150B02C079018A018EE1A3
:100FF000C82ED12CDC82CB82ED82FE820F83188733
:10100000C801B7010E94750801971816190684F4E3
:10101000082E04C0EE0CFF1C001F111F0A94D2F70B
:10102000ED82FE820F831887C81AD90ADC82CB8230
:10103000BA82CE0101960E94C4082896E9E00C9479
:10104000B60AACE0B0E0E7E2F8E00C94A10A6983EC
:101050007A838B839C83CE010196BE016B5F7F4FA9
:101060000E9499098D81823061F1823050F1843083
:1010700021F48E81882351F12EC02F81388537FDD0
:1010800020C06E812F3131051CF06623F9F023C09A
:101090008EE190E0821B930B29853A854B855C8518
:1010A00004C056954795379527958A95D2F76623BC
:1010B000B1F050954095309521953F4F4F4F5F4F80
:1010C0000EC020E030E040E050E009C02FEF3FEFDD
:1010D0004FEF5FE704C020E030E040E050E8B901A6
:1010E000CA012C96E2E00C94BD0AEF92FF920F9396
:1010F0001F937B018C0180E0E81680E0F80681E018
:10110000080780E0180788F48FEFE816F10401055E
:10111000110531F028F088E090E0A0E0B0E017C0C1
:1011200080E090E0A0E0B0E012C080E0E81680E04F
:10113000F80680E0080781E0180728F088E190E0D1
:10114000A0E0B0E004C080E190E0A0E0B0E020E2E8
:1011500030E040E050E0281B390B4A0B5B0B04C029
:1011600016950795F794E7948A95D2F7F701E15B16
:10117000FE4F8081281B310941095109C9011F9186
:101180000F91FF90EF900895DF92EF92FF920F93EF
:101190001F93FC01E480F58006811781D180808156
:1011A000823048F480E090E0A0E1B0E0E82AF92A3B
:1011B0000A2B1B2BA5C0843009F49FC0823021F478
:1011C000EE24FF24870105C0E114F1040105110597
:1011D00019F4E0E0F0E096C0628173819FEF62381D
:1011E00079070CF05BC022E83FEF261B370B2A3152
:1011F00031052CF020E030E040E050E02AC0B8019A
:10120000A701022E04C076956795579547950A94D5
:10121000D2F781E090E0A0E0B0E004C0880F991F11
:10122000AA1FBB1F2A95D2F70197A109B1098E21E8
:101230009F21A023B1230097A105B10521F081E0F2
:1012400090E0A0E0B0E09A01AB01282B392B4A2BAB
:101250005B2BDA01C9018F779070A070B070803479
:101260009105A105B10539F427FF09C0205C3F4F66
:101270004F4F5F4F04C0215C3F4F4F4F5F4FE0E047
:10128000F0E02030A0E03A07A0E04A07A0E45A07C7
:1012900010F0E1E0F0E079018A0127C060387105C3
:1012A00064F5FB01E158FF4FD801C7018F779070BB
:1012B000A070B07080349105A105B10539F4E7FE46
:1012C0000DC080E490E0A0E0B0E004C08FE390E0C7
:1012D000A0E0B0E0E80EF91E0A1F1B1F17FF05C0B3
:1012E00016950795F794E794319687E0169507953C
:1012F000F794E7948A95D1F705C0EE24FF2487017F
:10130000EFEFF0E06E2F679566276795902F9F7738
:10131000D794DD24D7948E2F8695492F462B582FAE
:101320005D29B701CA011F910F91FF90EF90DF90E7
:101330000895FC01DB01408151812281622F6F778A
:1013400070E0221F2227221F9381892F880F822B72
:10135000282F30E0991F9927991F11969C93119778
:1013600021153105A9F5411551056105710511F4E6
:1013700082E037C082E89FEF13969C938E9312977A
:101380009A01AB0167E0220F331F441F551F6A9576
:10139000D1F783E08C930DC0220F331F441F551FDC
:1013A00012968D919C911397019713969C938E930F
:1013B0001297203080E0380780E0480780E4580723
:1013C00058F314962D933D934D935C93179708957E
:1013D0002F3F310579F4411551056105710519F467
:1013E00084E08C93089564FF03C081E08C9312C065
:1013F0001C9210C02F57304013963C932E93129797
:1014000083E08C9387E0440F551F661F771F8A95F2
:10141000D1F7706414964D935D936D937C931797F9
:1014200008951F93DC01FB019C91923008F447C0A2
:101430008081823008F443C0943051F411961C919D
:10144000843099F58181682F70E0611B71093FC07C
:10145000843021F0923031F48230B9F181818823D7
:1014600089F12DC011961C9111978230F1F0818184
:101470001817D9F412962D913C911397828193817C
:101480008217930794F028173907BCF014968D91B2
:101490009D910D90BC91A02D24813581468157816D
:1014A000281739074A075B0718F4112341F00AC0CF
:1014B00082179307A407B50740F4112319F061E0E0
:1014C00070E005C06FEF7FEF02C060E070E0CB011D
:1014D0001F91089597FB092E07260AD077FD04D0A7
:1014E0000CD006D000201AF4709561957F4F0895B6
:1014F000F6F7909581959F4F0895AA1BBB1B51E16C
:1015000007C0AA1FBB1FA617B70710F0A61BB70B73
:10151000881F991F5A95A9F780959095BC01CD0118
:1015200008952F923F924F925F926F927F928F9287
:101530009F92AF92BF92CF92DF92EF92FF920F9362
:101540001F93CF93DF93CDB7DEB7CA1BDB0B0FB66C
:10155000F894DEBF0FBECDBF09942A883988488829
:101560005F846E847D848C849B84AA84B984C884BF
:10157000DF80EE80FD800C811B81AA81B981CE0FB6
:10158000D11D0FB6F894DEBF0FBECDBFED0108959B
:10159000FA01EE0FFF1F30962105310599F1611513
:1015A000710561F48038BFE39B0749F16894903876
:1015B000810561F08038BFEF9B0741F0992342F528
:1015C000FF3FE1053105210511F1E8940894E79505
:1015D000D901AA2329F4AB2FBE2FF85FD0F310C096
:1015E000FF5F70F4A695E0F7F73950F019F0FF3A75
:1015F00038F49F779F930CD00F9007FC9058089574
:101600003EF049C060E070E080E89FE308954FE756
:101610009F775F934F933F932F93D0D02F913F911C
:101620004F915F913ED105C019F40EF02EC07DC0E0
:1016300032C061D0C8F39638C0F707F80F92E8942B
:101640002BE33AEA48EB5FE73AD10F920F920F9201
:101650004DB75EB70F92F2D0ECE8F0E01FD04F919B
:101660005F91EF91FF91E595EE1FFF1F49F0FE5747
:10167000E0684427EE0F441FFA95E1F74195550BBA
:1016800064D00F9007FE58C0089597F99F6780E8CF
:1016900070E060E008959FEF80EC0895DF93CF93B2
:1016A0001F930F93FF92EF92DF927B018C0168945E
:1016B00005C0DA2EEF0101D1FE01E894A591259134
:1016C000359145915591AEF3EF015BD1FE01970144
:1016D000A801DA9479F7DF90EF90FF900F911F91B6
:1016E000CF91DF91089557FD9058440F551F59F041
:1016F0005F3F71F04795880F97FB991F61F09F3FFF
:1017000079F087950895121613061406551FF2CF27
:101710004695F1DF08C0161617061806991FF1CF77
:1017200086957105610508940895E894BB2766279E
:101730007727CB0197F908959B01AC0160E070E039
:1017400080E89FE371C1A1CFD7C1D5DFE8F399232A
:10175000D9F3940F511DBBF39150504094F059F0C0
:10176000882332F0660F771F881F91505040C1F7D1
:101770009E3F510544F7880F911D9695879597F9DF
:1017800008955F3FACF0983E9CF0BB278695779517
:101790006795B79508F4B1609395C1F7BB0F58F7FB
:1017A00011F460FFE8CF6F5F7F4F8F4F9F4FE3CF04
:1017B000BDCF0EF0A1C16FCF689467CF9CDFC8F397
:1017C0009923D1F3C6F3DF93CF931F930F93FF9227
:1017D000C92FDD2788232AF02197660F771F881FDE
:1017E000DAF720E030E040E85FEB9FE3883920F053
:1017F000803E30F021968F7769DBE4EBF0E003C0A8
:1018000065DBE1EEF0E04ADF8B01BE01EC01FB2E6F
:101810006F5771097595771F880B990BB4DB28E119
:1018200032E741E35FE349D0AF2D9801AE01FF906D
:101830000F911F91CF91DF91A4D07AC1FA01DC0101
:10184000AA0FBB1F9B01AC01BF5728F422273327E7
:10185000442750781FC0B75188F4AB2F0024469519
:1018600037952795011CA395D2F3002069F0220F2C
:10187000331F441FB395DAF30DD0F7CA61307105F9
:10188000A0E88A07B94630F49B01AC0166277727A8
:1018900088279078309621F02083318342835383C8
:1018A00008950BD045C136D128F03BD118F09523CF
:1018B00009F0EBCEF0CE112439CF15DFA0F3959FC0
:1018C000D1F3950F50E0551F629FF001729FBB2727
:1018D000F00DB11D639FAA27F00DB11DAA1F649FD3
:1018E0006627B00DA11D661F829F2227B00DA11D86
:1018F000621F739FB00DA11D621F839FA00D611D0C
:10190000221F749F3327A00D611D231F849F600D2C
:10191000211D822F762F6A2F11249F5750408AF065
:10192000E1F088234AF0EE0FFF1FBB1F661F771FF1
:10193000881F91505040A9F79E3F510570F0A5CEE9
:10194000F5CE5F3FECF3983EDCF38695779567958F
:10195000B795F795E7959F5FC1F7FE2B880F911D0F
:101960009695879597F90895D5D030F0DAD020F084
:1019700031F49F3F11F41EF48ECE0EF4E095E7FB98
:1019800084CEE92FB0DE80F3BA17620773078407AD
:10199000950718F071F49EF5C8CE0EF4E0950B2E65
:1019A000BA2FA02D0B01B90190010C01CA01A001B1
:1019B0001124FF27591B99F0593F50F4503E68F10C
:1019C0001A16F040A22F232F342F4427585FF3CF4D
:1019D000469537952795A795F0405395C9F77EF41E
:1019E0001F16BA0B620B730B840BBAF09150A1F067
:1019F000FF0FBB1F661F771F881FC2F70EC0BA0FED
:101A0000621F731F841F48F4879577956795B79574
:101A1000F7959E3F08F0B3CF9395880F08F099276C
:101A2000EE0F9795879508950CD082C07AD040F03C
:101A300071D030F021F45F3F19F027CE511176CEEE
:101A40002ACE51DE98F39923C9F35523B1F3951BA0
:101A5000550BBB27AA2762177307840738F09F5FCF
:101A60005F4F220F331F441FAA1FA9F333D00E2E3E
:101A70003AF0E0E830D091505040E695001CCAF7AB
:101A800029D0FE2F27D0660F771F881FBB1F261770
:101A900037074807AB07B0E809F0BB0B802DBF0143
:101AA000FF2793585F4F2AF09E3F510568F0EDCD18
:101AB0003DCE5F3FECF3983EDCF3869577956795D6
:101AC000B795F7959F5FC9F7880F911D96958795F4
:101AD00097F90895E1E0660F771F881FBB1F621713
:101AE00073078407BA0720F0621B730B840BBA0BD1
:101AF000EE1F88F7E09508959F3F31F0915020F454
:101B0000879577956795B795880F911D96958795D9
:101B100097F9089500240A94161617061806090660
:101B2000089500240A941216130614060506089553
:101B3000092E0394000C11F4882352F0BB0F40F4DB
:101B4000BF2B11F460FF04C06F5F7F4F8F4F9F4F1B
:061B50000895F894FFCF98
:101B56001F1003AF8F00000102040810050A140DC0
:101B66001A11070E1C1D1F1B1303060C18150F1E3A
:101B760019170B16091201FF0001120205130B03B8
:101B86001D061B14080C17040A1E1107161C1A152D
:101B96001909100D0E180F000000000000000000CB
:101BA60001020203030303040404040404040405F9
:101BB60005050505050505050505050505050506CE
:101BC60006060606060606060606060606060606AF
:101BD600060606060606060606060606060606079E
:101BE600070707070707070707070707070707077F
:101BF600070707070707070707070707070707076F
:101C0600070707070707070707070707070707075E
:101C1600070707070707070707070707070707084D
:101C2600080808080808080808080808080808082E
:101C3600080808080808080808080808080808081E
:101C4600080808080808080808080808080808080E
:101C560008080808080808080808080808080808FE
:101C660008080808080808080808080808080808EE
:101C760008080808080808080808080808080808DE
:101C860008080808080808080808080808080808CE
:101C960008080808080808080808080808080800C6
:00000001FF
